:020000040800F2
:10000000201A002049010008FB3B00088B3500083E
:10001000F93B00084D0F00083950000800000000AF
:100020000000000000000000000000005B0100086C
:10003000D9140008000000005F0100083D440008DA
:100040006301000863010008630100086301000800
:1000500063010008630100086301000863010008F0
:1000600063010008630100086301000863010008E0
:10007000630100089D140008630100086301000883
:10008000A11400086301000863010008630100086F
:1000900063010008630100086301000863010008B0
:1000A00063010008630100086301000863010008A0
:1000B0006301000863010008630100086301000890
:1000C0006301000863010008630100086301000880
:1000D0006301000863010008554E0008194F00082D
:1000E0006301000863010008630100086301000860
:1000F0006301000863010008630100086301000850
:10010000630100086301000863010008630100083F
:100110002D490008014A0008E9440008630100086D
:10012000630100086301000863010008630100081F
:10013000DFF810D000F048FC00480047415C0008A0
:10014000AFF30080201A0020064880470648004789
:10015000FEE7FEE7FEE7FEE7FEE7FEE7FEE7FEE777
:10016000FEE7FEE7A144000831010008202A04DB75
:10017000203A21FA02F00021704721FA02F3D04020
:10018000C2F12002914008431946704740EA01033A
:100190009B0703D009E008C9121F08C0042AFAD23D
:1001A00003E011F8013B00F8013B521EF9D2704701
:1001B000D2B201E000F8012B491EFBD270470022A9
:1001C000F6E710B513460A4604461946FFF7F0FF56
:1001D000204610BDF0B480EA0102D40F4200B2EB19
:1001E000410F02D20246084611464A0042D0C30DD2
:1001F000DDB2C1F3C752AD1A202D35DAC1F31601B5
:1002000041F4000204B15242C5F1200602FA06F19F
:100210002A411044B3EBD05F23D0C4B1012DA0EB31
:10022000C35009DCF0BC4FF0004202EAC352DBB21B
:1002300000F5000000F03CBB400000F1807000EBD6
:10024000C350A0F1807040EAD170490009E049082C
:1002500041EAC071A0EBC35000F50000400800EB7C
:10026000C350F0BC00F01BBB6142012202EB410114
:10027000001BF6E7F0BC704781F00041AAE780F070
:100280000040A7E780EA010210B502F000434000F9
:1002900022D04A001FD0010E01EB1261C0F35600BC
:1002A000C2F3560240F4000042F40002A0FB022018
:1002B00000047F39140400D0401C50EA124001D4DD
:1002C0004000491EC2B20C0604EBD010401C40088E
:1002D000802A02D003E0002010BD20F00100002998
:1002E00000DA0020184310BD30B480EA010202F0A9
:1002F000004530F0004221F0004013D090B1C30D12
:10030000D40DC2F31601C0F31600E41A41F4000143
:1003100040F400027D34914201D3641C00E04900A6
:10032000002C02DA30BC002070474FF4000000239C
:10033000914201D3891A034340084FEA4101F7D1A2
:1003400051B1914202D14FF0004105E002D24FF08D
:10035000010101E06FF0010103EBC450284430BCFF
:1003600000F09DBA420005D0C0F3C75252429142FC
:1003700001DC0020704700EBC15070472DE9FE4FB3
:10038000804681EA0300C00F0C46009021F0004136
:1003900023F00045B8EB0200A94105D240462146B2
:1003A00090461C460B46024623F00040104347D0BF
:1003B000270DC7F30A00C3F30A510290401A0190B7
:1003C00040286BDAC3F3130040F4801B0098924678
:1003D00020B10023D2EB030A63EB0B0B01985946C3
:1003E000C0F14002504600F039FA06460D4650462C
:1003F0005946019A00F041FA10EB080061410024CF
:1004000087EA115284EAE7731A4340D0009A62B334
:10041000019A012A4FEA075215DC001B61EB020129
:100420004FF0004202EA0752CDE90042001C41F5BC
:10043000801132462B4600F078FA03B0BDE8F08F09
:1004400040462146F9E7001B61EB0201001C41F523
:10045000801300185B412018A2F5001747EB030139
:1004600040EAD570B6196D4111E06D084FEA3606C5
:1004700045EAC0754FEA0752001B61EB0201001C00
:1004800041F5801149084FEA3000001951413246C8
:100490002B4603B0BDE8F04F00F038BA00980122B7
:1004A00040000023D0EB020263EBE073009821468A
:1004B0004FEAE074B8EB000061EB0401E9E783F078
:1004C00000435BE781F0004158E72DE9FE4F81EAE8
:1004D000030404F0004421F0004100944FF0000BAD
:1004E00023F0004350EA01045ED052EA03045BD0DB
:1004F000C3F30A54C1F30A552C44A4F2F334019413
:10050000A0FB0254C1F3130141F48011C3F31303A0
:1005100043F4801301FB024400FB034E840A970A54
:1005200044EA815447EA8357A4FB076802958D0A81
:1005300005FB07854FEA932C04FB0C542705029D0D
:100540004FEA065847EA1637B5EB08056EEB070C7D
:10055000870E920E47EA811742EA8312A7FB020137
:10056000B6EB0B0164EB00042B0D43EA0C335E1871
:1005700044EB1C50DA465146E7FB0201C5F3130475
:100580004FEA0B3343EA14534FEA0432019C43EA27
:100590000603A4F10C040294009CCDE900B400F021
:1005A000C4F903B0BDE8F08F00200146F9E72DE95A
:1005B000F04D81EA030404F0004B21F0004514469D
:1005C0004FF0000A23F0004150EA050220D054EA1F
:1005D00001021DD0C5F30A570246C5F31303C1F348
:1005E0001300C1F30A5640F4801543F48013A7EBBF
:1005F0000608101BD64608F2FD3873EB050002D33F
:1006000008F1010801E092185B41B8F1000F03DA2C
:1006100000200146BDE8F08D00204FF48011064611
:1006200084460EE0171B73EB050705D3121B63EB23
:10063000050306434CEA010C49084FEA30009218C2
:100640005B4150EA0107EDD152EA030012D082EA81
:10065000040083EA0501084305D0101BAB4106D214
:100660000122002306E000224FF0004302E06FF079
:10067000010253101AEB06004CEB085110EB0A0074
:1006800041EB0B01BDE8F04D00F040B970B521F031
:10069000004303430CD0C1F30A550024D5EB0405F5
:1006A00064EB0403D617AD1AB34102DB0020014608
:1006B00070BD201841EB025170BDC10F80EAE0709F
:1006C0000844CA079623002100F0F2B896230022BE
:1006D000114600F0EDB80EB5C10F80EAE070084495
:1006E000CA07002140F233438DE80E000A460B464C
:1006F00000F01BF903B000BD0EB540F2334102918A
:100700000021CDE900110A460B4600F00EF903B0B6
:1007100000BD00F0004220F00040C10DC0F3160003
:1007200040F400007F2901DA00207047962903DC9D
:10073000C1F19601C84001E096398840002AF4D002
:1007400040427047C1F30A5210B5C1F3130140F2A1
:10075000FF3341F480119A4201DA002010BD40F2CB
:1007600033439A42A2F2334203DC5242FFF7FEFCCB
:1007700010BD904010BD00F0004230F000400AD0A3
:10078000C10D01F56071C0F3160042EA0151C208C3
:1007900040071143704700200146704730B5041EE2
:1007A00071F1000404DB4FF00044404264EB0101AE
:1007B000141E73F1000405DB1C464FF00043524247
:1007C00063EB04038B4208BF824230BD30B5041E88
:1007D00071F1000404DB4FF00044404264EB01017E
:1007E000141E73F1000405DB1C464FF00043524217
:1007F00063EB0403994208BF904230BD01F000430F
:1008000030B421F0004150EA010206D00A0DA2F5F1
:100810006072C1F31301002A02DC30BC0020704773
:10082000440F44EAC104C100E01830BC00EBC250E0
:1008300000F035B8002801DBC0F10040002901DBE1
:10084000C1F1004181427047002801DBC0F1004046
:10085000002901DBC1F1004188427047202A04DBF6
:10086000203A00FA02F1002070479140C2F12003C3
:1008700020FA03F3194390407047202A06DBCB1778
:10088000203A41FA02F043EAE07306E041FA02F34B
:10089000D040C2F120029140084319467047002918
:1008A000A8BF7047401C490008BF20F001007047F6
:1008B00010B4B0FA80FC00FA0CF050EA010404BF56
:1008C00010BC704749B1CCF1200421FA04F411FAAC
:1008D0000CF118BF012121430843A3EB0C01CB1DF0
:1008E0004FEA00614FEA102042BF002010BC704761
:1008F00000EBC35010440029A4BF10BC7047401C3B
:10090000490008BF20F0010010BC704710B5141E4C
:1009100073F1000408DA401C41F1000192185B41B8
:100920001A4301D120F0010010BD2DE9F04D92468F
:100930009B4611B1B1FA81F202E0B0FA80F22032A6
:100940009046FFF78BFF04460F4640EA0A0041EA53
:100950000B0153465A46084313D0114653EA01008F
:1009600019D0C8F140025046FFF700FC05460E467C
:10097000504659464246FFF771FF084305D0012013
:1009800004E020463946BDE8F08D0020054346EAE4
:10099000E0762C4337430A986305E40AA0EB08008D
:1009A0000022FD0A44EA47540A3002D500200146DD
:1009B000E9E7010510196941DDE9084500196941B8
:1009C000BDE8F04DA2E70000064C074D06E0E068E8
:1009D00040F0010394E8070098471034AC42F6D386
:1009E000FFF7AAFB406A0008606A000870B58C181F
:1009F00010F8015B15F0070301D110F8013B2A1133
:100A000006D110F8012B03E010F8016B01F8016B1F
:100A10005B1EF9D12B0705D40023521E0DD401F81B
:100A2000013BFAE710F8013BCB1A921C03E013F8E4
:100A3000015B01F8015B521EF9D5A142D8D3002019
:100A400070BD000070B505460E4631462846FFF7DA
:100A500013FC044C206031462846FFF7BBFB606066
:100A600070BD00002C00002070B506460024064D25
:100A700007E0012001F00AF8D5F808110029FBD1A0
:100A8000641CB442F5D370BD008021422DE9F04FC3
:100A900089B0394C374FA760022005F0E3FB374E91
:100AA000DFF8DCA0DAF80800B042FBD3E760DFF83B
:100AB000D490354DD9F808006860042005F0D2FBC9
:100AC0001C22324901A8FFF761FB30493048086019
:100AD000DAF80800B042FBD2E0690890DFF8B48091
:100AE000DFF8B4B0D9F8086029E098F802000128CE
:100AF00015D098F80000012811D098F803000128BB
:100B000014D098F80100012810D06E60E0690899AF
:100B1000FFF7B2FBB84210DA2048E0600FE04FF078
:100B200082413046FFF7A8FB6860EFE74FF0824153
:100B30003046FFF74FFB6860E8E71948E060DAF8F5
:100B400008005845D1DB6E604FF4FA7004F060FC89
:100B50001448A060022005F085FB002089F81400ED
:100B600099F8000040F0040089F8000009B0BDE8E1
:100B7000F08F0000000070422C000020000070C1C7
:100B800074100020C010002058000020AC1100207C
:100B90009A99D93F0F0000200000204100008C42AC
:100BA000000020420000B4422DE9F047044604F062
:100BB00037FB1C4F1A48F860042005F053FB1A4815
:100BC0001A4DA9688142FCDB062004F055FABC608E
:100BD000022005F047FBDFF85880DFF85890164EEA
:100BE0000DE098F808000A2809D304F001FEC9F8BE
:100BF0000400FC60042005F035FB04F009FBA86844
:100C0000B042EEDC0D48A9688142FCDB022005F011
:100C100029FBBC600A48A9688142FCDABDE8F0877C
:100C2000000020422C0000200000A0417410002091
:100C3000EC100020580000200000A040000070418F
:100C4000000020412DE9F04F87B01C22774968460B
:100C5000FFF79CFA774D764EAE60022005F002FB5E
:100C6000724875490160754981607548A8604FF008
:100C70008049C5F82090022005F0F4FADFF8C4811D
:100C8000714CD8F80800A042FBD370482862704F1E
:100C9000AF60D8F80800A042FBD8042005F0E2FAC3
:100CA000EF60D8F80800A042FBD3022005F0DAFA82
:100CB000AF60D8F80800A042FBD8042005F0D2FAB3
:100CC000EE604FF49670FFF7CFFE00F041F9614EF1
:100CD000D8F80000B16805F081F9D5F81CA0002013
:100CE00005F0C0FADFF87081C5F80480C5F800800F
:100CF0004FF08144E9695046FFF7BEFAA042F9DBA4
:100D000000F026F9DFF854A1C5F810A003F01AF995
:100D1000052004F0B1F9642004F07AFB032004F00C
:100D2000ABF94F4803F0DEFD4E4C04F061FD216845
:100D3000FFF7A5FAFFF71FFD21F0004100224B4607
:100D4000FFF744FDF1D3307904F072FAF0B30120DB
:100D500004F092F9322004F05BFBDFF80CB1584646
:100D600003F0C0FDDFF8049104F042FD2168FFF7B5
:100D700086FAFFF700FD21F0004100224B46FFF705
:100D800025FDF1D3584603F0ADFD04F031FD216897
:100D9000FFF775FAFFF7EFFC21F0004100224B4608
:100DA000FFF714FDF1D3324803F09CFDDFF8C49047
:100DB00004F01EFD2168FFF762FAFFF7DCFC21F06A
:100DC000004100224B46FFF701FD00E006E0EFD3B3
:100DD000022004F051F9322004F01AFB2F6105F0D3
:100DE0003BF8642004F014FB002005F03BFAC5F842
:100DF0000480C5F800804FF47A7000F047FE00F0E0
:100E0000A7F804F0F5FC60605046FFF7CDFE1C2209
:100E100069460648FFF7BAF900203075307840F08F
:100E20000400307007B0BDE8F08F0000741100209E
:100E3000000020422C0000200000C841000070414A
:100E400000008C4274100020000088C16666E63FF6
:100E50000000A042C01000200000F0C1000070425D
:100E600000003343580000200000024300002440EB
:100E70000000F0420000F03F30B587B004461C226D
:100E80001A496846FFF782F91A4D1948A8601749B0
:100E90000860022005F0E6F9174818498A6882427E
:100EA000FCD3174AAA608A688242FCD8154A8B682C
:100EB0009342FCDB022C0BD18B689342FCDC8B68E9
:100EC0008342FCD38B688342FCD888689042FCDB69
:100ED0001C2269460548FFF759F90B4800210175A6
:100EE000017841F00401017007B030BD7411002099
:100EF000000048422C000020000020C17410002097
:100F00000000344200002041C010002070B50646A9
:100F10000C4C0B48A060022005F0A4F9E569E069DB
:100F20002946FFF7A9F93146FFF784FCF7D30648B5
:100F300000210175017841F00401017070BD0000CD
:100F4000000020422C000020C0100020FEE700001E
:100F500010B5002005F086F90249002048600860BD
:100F600010BD00002C0000202DE9FC5FDFF81CA460
:100F7000DFF81C8401279AF8001008F1180001908E
:100F8000002911D10AF107008AF80070017898F859
:100F9000040004F04BFC00EB8001FE48142200EB3F
:100FA00081010198FFF7F2F8F84EDFF8EC93761E16
:100FB0004FF0000B3078012802D0002873D0ADE04C
:100FC000B8F80C00FFF798FBF44AF54BFFF77DFAF1
:100FD0000446D9F81C000D4620F00040FFF7CBFB7B
:100FE00022462B46FFF7F2FB66D886F800B0B8F829
:100FF000060080050BD5EB480088C0F3C11003281C
:1010000005D1E948D8F80810006804F0E7FF04F0BB
:10101000EFFBD8F81C1004F0E9FFFFF7ACFBE34C42
:1010200021F0004100222346FFF7B8FB0ED9D8F883
:101030001C10D8F8080004F0D9FFFFF79CFB21F042
:10104000004100222346FFF7A9FB10D84FF0804053
:10105000C9F82000D8F81000FFF78DFBCF4AD04B1D
:10106000FFF733FAFFF7CAFBC9F8080056E0D0488B
:10107000C9F82000B8F806004FF0FF34400502D54B
:10108000CC48C9F80800D8F81000FFF774FB2246D6
:10109000FFF7FCFA0022C84BFFF798FB04D2C748C1
:1010A000C9F808003AE017E02146D8F81000FFF729
:1010B00059F9C9F8080031E0BD48C9F82000D8F84E
:1010C0001000FFF758FBB54AB54BFFF7FEF9FFF7E5
:1010D00095FBC9F8080021E098F8140004F07AFEA6
:1010E00004F0E2F8D0B1B648C0F800B098F80000BB
:1010F00040F0040088F8000004F092F898F804002A
:10110000132802D1322004F083F998F804001A2839
:1011100034D0642004F07CF904F07AF898F80000E8
:10112000410777D520F0040088F8000097489AF826
:101130000010801D085CFF286DD004F059FBD8F822
:101140001C1004F053FFFFF716FB984C21F00041F0
:1011500000222346FFF722FB0ED3D8F81C10D8F844
:10116000080004F043FFFFF706FB21F000410022D6
:101170002346FFF713FB05D2377006E1C82004F0C1
:1011800047F9C9E7B8F806008E4C40056FD5D9F885
:101190001C00009098F804004FF082422C283BD0AD
:1011A0002D2839D0884D30283FD098F8181025299F
:1011B00043D0132849D00B2950D00A2858D01428DE
:1011C0005ED0824CD9F81C000099FFF755F8A04278
:1011D000F8DB7F48D8F81C100160032005F042F8C6
:1011E0004FF0804404F004FBD8F81C10FFF747F8D8
:1011F000FFF7C1FA21F0004100222346FFF7E6FA8B
:10120000F0D3FFF7A5FE142004F002F904F024FE49
:101210003770BAE01AE10FE11446D9F81C000099C2
:10122000FFF72AF8A042F8DBD3E7D9F81C000099B1
:10123000FFF722F8A842F8DBCBE7D9F81C000099A9
:10124000FFF71AF8A842F8DBC3E71446D9F81C00E8
:101250000099FFF711F8A042F8DBBAE75D4CD9F826
:101260001C000099FFF708F8A042F8DBB1E710E096
:10127000D9F81C000099FEF7FFFFA042F8DBA8E7B1
:10128000554CD9F81C000099FEF7F6FFA042F8DB98
:101290009FE704F0ADFAD8F81C1004F0A7FEFFF7A2
:1012A0006AFA21F0004100224C4BFFF777FA4AD24C
:1012B000012004F0D7FF04F09BFAD8F81C1004F0CA
:1012C00095FE044604F094FAD8F81C1004F08EFE43
:1012D0002DE004F08DFAD8F81C1004F087FE0446C7
:1012E00004F086FAD8F81C1004F080FEFFF743FAE9
:1012F00021F0004100223A4BFFF7E4F80022394B7D
:10130000FFF7E3F80022384BFFF751F9FFF776FAC1
:1013100005462046FFF72FFA4FF06632334BFFF7B2
:1013200046F9FFF76BFA01462846FFF78BFB20468C
:10133000FFF721FA21F0004100222D4BFFF746FA7A
:10134000C7D3377021E0D9F81C50D9F81C002946C2
:10135000FEF792FFA042F8DB1D48D8F81C10016090
:10136000032004F07FFF4FF0804404F041FAD8F8E6
:101370001C10FEF784FFFFF7FEF921F00041002268
:101380002346FFF723FAF0D3377033E061000020E3
:10139000C0100020600200202C0000209A9999992A
:1013A0009999E93FEC1000207410002000002440BF
:1013B000000020400000F0410000444000002042B6
:1013C000FC0B002000007041000040410000204163
:1013D000580000200000D8410000B04100004E40FD
:1013E0000080664000005540008076406666F63F0B
:1013F00000001040022004F035FF142208F1040020
:101400000199FEF7C3FE9AF80010481C8AF8000004
:101410002048415C98F8040004F008FA00EB8001D1
:101420001D48142200EB81010198FEF7AFFEC9F8B8
:101430001CB0C9F818B009E0C9F808B0FFF788FD7A
:1014400037709AF80100401C8AF8010098F80000F3
:1014500080061DD537709AF80000411C8AF80010EC
:101460000C49095C98F8040004F0E0F900EB8001F5
:101470000948142200EB81010198FEF787FE0E2037
:1014800088F8280098F8000020F0200088F8000074
:10149000BDE8FC9F6800002060020020704700004B
:1014A000014800F029B90000240F002030B590F861
:1014B00040500124AC40C56B6C60046863604368B5
:1014C000102B04D0036899600068C26030BD0368C7
:1014D0009A600068C16030BD704710B503F0A0FE8F
:1014E0004FF4FA6003F094FFBDE8104003F090BEA3
:1014F00070B505461348416813488160134909686F
:101500008161134904F044FF044612498C4201DB17
:101510000C4603E01048844200D3044625F0004006
:10152000FEF7E2FE2146FEF7ADFE044621462846C0
:10153000FEF7A2FE094E306021462846FEF74AFE1D
:10154000706070BDEC100020C8110020FC0B002062
:101550007411002000004842000048C22C00002006
:1015600010B590F821100022022905D004218163D2
:1015700080F82020012010BD01680B6823F00E03C5
:101580000B6001680B6823F001030B6090F840309A
:10159000C46B012101FA03F3636080F8211080F825
:1015A0002020104610BD00002DE9F05F002590F8C6
:1015B0002110022903D004218163012595E00168EF
:1015C0000A6822F00E020A6001680A6822F001022D
:1015D0000A60474E464FB215DFF814C1DFF810819C
:1015E000DFF80C91DFF808A1DFF804B10168783F5B
:1015F00013011402ACF1640CA8F15008A9F13C09E4
:10160000AAF1280AABF1140B4FF4801EB1422FD976
:10161000B94201D1012227E0614501D1102223E026
:10162000414521D0494501D11A461DE0514501D11E
:10163000224619E0594501D1724615E02D4EB142BE
:1016400001D1012210E02B4E1436B14201D11022FB
:101650000AE0284E2836B14206D0264A3C32914252
:1016600001D11A4600E022462249091F0A6033E0F0
:10167000B94201D101222CE0614501D1102228E0BC
:10168000414526D0494501D11A4622E0514501D1B4
:1016900022461EE0594501D172461AE0B14202D1FC
:1016A0004FF0807215E0134EB14201D1012210E0DB
:1016B000104E1436B14201D110220AE00D4E2836E8
:1016C000B14206D00B4A3C32914201D11A4600E0A9
:1016D0002246074980394A60012180F82110002103
:1016E00080F82010416B01B188472846BDE8F09F83
:1016F00080000240080402402DE9F05FC16B0A68D7
:1017000001680B68046C4FF0040E0EFA04FE9A4D4B
:101710009A4E9B4FDFF86CC2DFF86C82DFF86C9258
:10172000DFF86CA2DFF86CB21EEA020F7BD05FEA32
:10173000437E78D50A68920603D40A6822F0040230
:101740000A60DFF848E24FF4806201680EF1140E7F
:101750001301140271452DD9A94201D1042225E0BB
:10176000B14201D1402221E0B9421FD0614501D1EF
:101770001A461BE0414501D1224617E0494502D1F6
:101780004FF4800212E0514501D104220EE0594588
:1017900001D140220AE07F4D1435A94206D07D4A8E
:1017A0002832914201D11A4600E022467849091FA9
:1017B0000A6032E0A94201D104222BE0B14201D1FA
:1017C000402227E0B94225D0614501D11A4621E0E7
:1017D000414501D122461DE0494502D14FF4800226
:1017E00018E0714502D14FF0806213E0514501D1FC
:1017F00004220FE0594501D140220BE0654D14351C
:10180000A94207D0634A2832914202D11A4601E028
:1018100009E02246584908394A60C16A00296FD058
:10182000BDE8F05F08474FF0020E0EFA04FE1EEA14
:10183000020F74D05FEA837E7FD50A68920606D4D1
:101840000A6822F00A020A60012180F82110DFF8FC
:101850003CE14FF4007201680EF1140E1301140202
:1018600071452DD9A94201D1022225E0B14201D111
:10187000202221E0B9421FD0614501D11A461BE068
:10188000414501D1224617E0494502D14FF40012EB
:1018900012E0514501D102220EE0594501D120222A
:1018A0000AE03C4D1435A94206D03A4A283291420A
:1018B00001D11A4600E022463549091F0A6033E08B
:1018C000A94201D102222CE0B14201D1202228E01C
:1018D000B94226D0614501D11A4622E0414501D1E5
:1018E00022461EE0494502D14FF4001219E071452D
:1018F00002D14FF0007214E0514502D1022210E0F3
:1019000038E0594501D120220BE0224D1435A9427F
:1019100007D0204A2832914202D11A4601E00CE059
:101920002246154908394A60002180F82010816A52
:1019300000291FD0BDE8F05F08470825A5401542E3
:1019400018D01A0716D50A6822F00E020A6090F81D
:101950004020C36B012101FA02F25A60816380F8D2
:101960002110002180F82010016B002902D0BDE871
:10197000F05F0847BDE8F09F080002401C000240ED
:101980003000024044000240580002406C00024017
:10199000080402401C04024030B500280DD01B4B47
:1019A0000168142299420AD2194B0B44B3FBF2F29C
:1019B00092000264174AC2630BE0012030BD134B52
:1019C0005B420B44B3FBF2F2920002640F4A083A06
:1019D000C2630222001D42770A6843F6F0739A43FD
:1019E000D0E900342343D0E902452C432343046962
:1019F0002343446923438469234313430B60002139
:101A00004163012242770177002030BD0804024083
:101A1000F8FFFDBF0000024070B50446002594F8B1
:101A2000200001280CD0012084F8200094F82160C7
:101A30000020012E06D084F820000225284670BD23
:101A4000022070BD022684F82160A0632068066829
:101A500026F0010606602046FFF728FDE06A28B15F
:101A60002068016841F00E01016009E0206801680A
:101A700021F0040101602068016841F00A01016061
:101A80002068016841F001010160D7E770B50446A4
:101A900000F02EF90546601C02D00448007804448A
:101AA00000F026F9401BA042FAD370BD100C0020B4
:101AB0002DE9F84F00240023DFF8E0914FF00F08E4
:101AC00009F1040A0AF1040B0BF1040EDFE001270F
:101AD000A7403A40BA4275D1DFF8C4C14D68A5EBC2
:101AE0000C0665452BD00DDC032D34D005DC35B359
:101AF000012D19D0022D2FD11BE0112D16D0122D42
:101B00002AD119E0B6F5881F19D006DCB6F5803F5A
:101B100015D0B6F5801F1FD111E0B6F5001F0ED00D
:101B2000B6F5041F18D10AE0CB6815E0CB681B1D81
:101B300012E0CB6808330FE0CB680C330CE08B6805
:101B400023B1012B04D00823476105E0042303E0FF
:101B50000823076100E00023FF2A01D8054601E0C1
:101B600000F1040502D84FEA840603E0A4F1080658
:101B70004FEA86062F6808FA06FC27EA0C0703FAE4
:101B800006F647EA06072F604D68ED007ED5454D05
:101B9000AE6946F00106AE61AD6905F0010500953C
:101BA000414D24F003067719BE68A5072D0F08FAEA
:101BB00005FC26EA0C06DFF8F4C0604503D14FF0BF
:101BC000000C25E062E0DFF8E8C0604502D14FF08C
:101BD000010C1DE0DFF8DCC0604502D14FF0020CC3
:101BE00016E0DFF8D4C0604502D14FF0030C0FE0DF
:101BF000DFF8C8C0604502D14FF0040C08E0DFF800
:101C0000C0C0604502D14FF0050C01E04FF0060C5A
:101C10000CFA05FC4CEA060CC7F808C04D68ED0349
:101C200005D5D9F800501543C9F8005004E0D9F89B
:101C300000509543C9F800504D68AD0305D5DAF85A
:101C400000501543CAF8005004E0DAF800509543FC
:101C5000CAF800504D68ED0205D5DBF80050154379
:101C6000CBF8005004E0DBF800509543CBF800506F
:101C70004D68AD0205D5DEF800501543CEF8005092
:101C800004E0DEF800509543CEF80050641C0A686A
:101C900032FA04F57FF41BAFBDE8F88F0004014071
:101CA0000000111000100240000001400008014037
:101CB000000C0140001001400014014000180140D8
:101CC000001C01408068084201D0012070470020BC
:101CD0007047C26821EA02030A4043EA02410161F7
:101CE0007047002A01D00161704709040161704703
:101CF0000148806870470000100C0020024881688D
:101D00000278114481607047100C002010B507481C
:101D1000016841F010010160032000F07DF80F2000
:101D200000F006F800F026F8002010BD0020024068
:101D300070B504460D4D4FF47A712878B1FBF0F080
:101D40000B490968B1FBF0F000F044FB08B1012039
:101D500070BD102C07D200222146501E00F03CF826
:101D60006C60002070BD012070BD0000100C0020D0
:101D70000000002008B50F48816941F00101816130
:101D8000816901F001010091C16941F08051C16197
:101D9000C06900F08050009000220F21901E00F0DA
:101DA0001BF80549486820F0E06040F0007048608A
:101DB00008BD00000010024000000140002809DBBF
:101DC00000F01F02012191404009800000F1E02055
:101DD000C0F8001170470000F0B40D460D4B1B68B1
:101DE000C3F30223C3F10704042C00D90424191DF2
:101DF000072901D2002300E0DB1E012606FA04F1C8
:101E0000491E294099409E40761E16403143F0BC41
:101E100003F013B90CED00E000F00701054A10686B
:101E20004FF6FF03184040EA0120034908431060C1
:101E3000704700000CED00E00000FA052DE9F047C6
:101E400004460D46002C17D0DFF83081D8F800008A
:101E500000F00700A84211D2D8F8000020F00700D7
:101E60002843C8F80000D8F8000000F00700A84296
:101E700004D00120BDE8F0870120FBE72068404E38
:101E8000810712D5400703D5706840F4E0607060A8
:101E90002078000703D5706840F460507060706867
:101EA000A16820F0F000084370602078C0072CD0B3
:101EB0006068012806D0022809D0316889070BD450
:101EC0000120D7E73168890306D40120D2E73168C1
:101ED000890101D40120CDE7716821F0030101439C
:101EE0007160FFF705FF074641F2883906E0FFF70A
:101EF000FFFEC01B484501D90320BBE7706861683D
:101F000000F00C00B0EB810FF1D1D8F8000000F028
:101F10000700A8420ED9D8F8000020F00700284397
:101F2000C8F80000D8F8000000F00700A84201D06F
:101F300001209FE72078400705D57068E16820F40C
:101F4000E060084370602078000706D5706821695A
:101F500020F4605040EAC100706000F03FF8716802
:101F6000084AC1F30311515CC8400749086007489B
:101F70000068FFF7DDFE00207CE700000020024043
:101F800000100240CC69000800000020140C002062
:101F900001480068704700000000002000B5FFF70E
:101FA000F7FF04494968044AC1F30221515CC84063
:101FB00000BD000000100240DC69000800B5FFF71A
:101FC000E7FF04494968044AC1F3C221515CC84093
:101FD00000BD000000100240DC69000885B014A0BC
:101FE00090E80E00C068CDE902230191049014A08E
:101FF00000680090134B5968134801F00C02042A42
:1020000010D0082A0ED101A8C1F38342805CC90315
:102010000AD55968C1F340411DF801100A4A5043DE
:10202000B0FBF1F005B0704708494843FAE70000FB
:1020300002030405060708090A0B0C0D0E0F101009
:10204000010200000010024000127A0000093D0069
:102050002DE9F84F0446002C0ED02078D94DC0074A
:102060005ED06868C0F3810001280BD06868C0F3B7
:102070008100022803D00CE00120BDE8F88F6868D9
:10208000C00306D5286880034AD56068A8BB012034
:10209000F3E76068B0F5803F11D0A8B1B0F5A02F8C
:1020A0001BD0286820F480302860286820F4802025
:1020B0002860606830B3FFF71BFE06461EE0286804
:1020C00040F480302860F4E7286820F480302860ED
:1020D000286820F480202860EBE7286840F48020FE
:1020E0002860286840F480302860E2E7FFF700FEAF
:1020F000801B642802D90320BFE711E02868800311
:10210000F4D50DE0FFF7F4FD064606E0FFF7F0FD1D
:10211000801B642801D90320AFE728688003F5D429
:102120002078DFF8A48280074FF0010A4FF0000901
:1021300045D5686810F00C0F07D06868C0F38100BF
:10214000022812D16868C0030FD42868800704D51C
:102150002069012801D001208FE72868616920F0FB
:10216000F80040EAC100286029E02069B8B1C8F849
:1021700000A0FFF7BDFD064606E0FFF7B9FD801B96
:10218000022801D9032078E728688007F5D5286858
:10219000616920F0F80040EAC10028600FE0C8F84B
:1021A0000090FFF7A5FD064606E0FFF7A1FD801BA6
:1021B000022801D9032060E728688007F5D4207839
:1021C000000726D58148A16999B1C0F800A0FFF7A2
:1021D0008FFD064606E0FFF78BFD801B022801D924
:1021E00003204AE7686A8007F5D5012001F024FE44
:1021F0000FE0C0F80090FFF77BFD064606E0FFF712
:1022000077FD801B022801D9032036E7686A800722
:10221000F5D42078400773D50026E869C00008D4BB
:10222000E86940F08050E861E86900F08050009073
:102230000126DFF89CB1DBF80000C00514D4DBF800
:10224000000040F48070CBF80000FFF751FD074616
:1022500006E0FFF74DFDC01B642801D903200CE701
:10226000DBF80000C005F4D5E068012812D0B0B159
:1022700005281DD0286A20F001002862286A20F075
:1022800004002862E06841F2883B28B3FFF730FD84
:1022900007461DE0286A40F001002862F2E7286A3C
:1022A00020F001002862286A20F004002862E9E793
:1022B000286A40F004002862286A40F00100286281
:1022C000E0E7FFF715FDC01B584501D90320D4E610
:1022D000286A8007F5D50DE0FFF70AFD074606E0FE
:1022E000FFF706FDC01B584501D90320C5E6286A43
:1022F0008007F5D4012E03D1E86920F08050E86111
:10230000E069A0B36968C1F38101022946D00228BF
:1023100005D0C8F86090FFF7EBFC04463AE0C8F837
:102320006090FFF7E5FC064606E0FFF7E1FC801B46
:10233000022801D90320A0E628688001F5D4206A8C
:10234000B0F5803F05D16868A16820F400300843EB
:102350006860D4E908010843696821F474110843EE
:102360006860C8F860A0FFF7C3FC044607E026E0F9
:10237000FFF7BEFC001B022801D903207DE6286878
:102380008001F5D51BE0FFF7B3FC001B022801D943
:10239000032072E628688001F5D410E001280CD0F3
:1023A0006868226A00F48031914204D1616A00F4C5
:1023B0007010884203D001205FE601205DE6002016
:1023C0005BE60000001002400000424280044242EE
:1023D0000070004010B5401EB0F1807F01D3012095
:1023E00010BD4FF0E02460610F21601702F025FE60
:1023F0000020A06107202061002010BD70477047B9
:1024000010B590F83C20012A22D0012280F83C200F
:10241000CA6800238C6822F4407222434C6822F47C
:10242000806222430C6822F4006222430C6922F489
:10243000805222434C6922F400522243C96922F49B
:1024400080420A4301684A6480F83C30002010BD95
:10245000022010BD70B590F83C20012A2BD0012637
:1024600080F83C60022280F83D200268536895683D
:1024700023F070040B6823435360104B02689A42A8
:102480000ED00F4B9A420BD0B2F1804F08D00D4BBB
:102490009A4205D00C4B9A4202D00C4B9A4204D17E
:1024A00025F080034968194391603C304670002153
:1024B0000170002070BD022070BD0000002C0140A2
:1024C000003401400004004000080040000C0040BF
:1024D00010B50446002C03D094F83D0010B107E07D
:1024E000012010BD002084F83C00204600F016F8C2
:1024F000022084F83D00211D206801F0FBFF01202F
:102500003D3460726070A070E07020716071A071E5
:10251000E07120722070002010BD000008B5006836
:10252000164A1749904208D1886940F400608861D2
:10253000886900F40060009008BD124A904211D1F1
:10254000C86940F01000C861C86900F01000009030
:10255000002201213620FFF73FFCBDE8084036206D
:10256000FFF72CBC084A9042E6D1886940F400503D
:102570008861886900F40050009008BD002C01407B
:1025800000100240001000400034014090F83D105F
:10259000012901D001207047022180F83D10016817
:1025A000CA6842F00102CA600068114988420ED030
:1025B000104988420BD0B0F1804F08D00E498842B4
:1025C00005D00E49884202D00D49884209D1816860
:1025D00001F00701062908D0016841F001010160FE
:1025E00003E0016841F00101016000207047000034
:1025F000002C01400034014000040040000800406D
:10260000000C004070B5044694F83C00012817D037
:10261000012584F83C50022084F83D00206882683F
:1026200022F0770222F47F4282600868502831D07D
:102630000DDC20284DD005DCB0B310284ED148E089
:10264000022070BD302844D0402847D137E06028B0
:102650002BD0702806D0B0F5805F3FD0B0F5005F7A
:102660003CD10BE0CB68D1E90121206801F097FF54
:102670002068816841F0770181602FE0CB68D1E963
:102680000121206801F08BFF2068816841F48041BE
:10269000816023E0CA684968206802F063F850212D
:1026A000206801F086FF19E013E0CA6849682068D5
:1026B00002F069F86021206801F07BFF0EE0CA6833
:1026C0004968206802F04EF84021206801F071FF4F
:1026D00004E022680146104601F06BFF3C3465704F
:1026E0000020207070BD2DE9F04104460D46002CFD
:1026F00003D094F83D0018B108E00120BDE8F08156
:10270000002084F83C00204600F046F8022084F8BF
:102710003D002068816844F2070291438160211DD9
:10272000206801F0E7FE273454F8270C826881699D
:10273000066A2B68134340F203329143AF69AA68DB
:1027400041EA07210A4340F60C418A434FF2F00167
:102750008A43EF69E96842EA072211432A692F6A2E
:10276000120142EA07320A4326F0220669686D69BF
:1027700046EA05152943836054F8270C826154F812
:10278000270C01620120E077E0752076E076207763
:10279000A0750020B2E7000070B586B00024029456
:1027A0000394049405940268434901254348444E28
:1027B000B2F1804F1AD0434CC023A24247D1CA691C
:1027C00042F00202CA61CA6902F0020201928A69F9
:1027D00042F004028A61896901F0040101910293C7
:1027E000049502A9FFF764F906B070BDCA6942F00A
:1027F0000102CA61CA6902F0010201928A6942F0CB
:1028000004028A618A6902F0040201928A6942F034
:1028100008028A61896901F0080101914FF40041C1
:102820000291049502A9FFF743F90820029003944E
:10283000049502A93046FFF73BF92349486820F484
:10284000407040F0E06040F480704860CCE71F4C7E
:10285000A24216D1C86940F00400C861C86900F0FE
:1028600004000190886940F008008861886900F0E0
:10287000080001900293049502A93046FFF718F969
:10288000B2E7134B9A42AFD1CA6942F00802CA615B
:10289000CA6902F0080201928A6942F004028A6160
:1028A000896901F00401019103210291049502A9B3
:1028B000FFF7FEF898E70000001002400008014012
:1028C000000C0140000400400000014000080040EE
:1028D000000C004070B5044614F83E0F627823796E
:1028E00065793E3C0226002904D004290DD0012838
:1028F0001CD115E0012801D1012B01D0012070BDB0
:1029000084F83E6084F8426018E0012A01D1012D6C
:1029100001D0012070BD84F83F6084F843600DE071
:10292000012A03D1012B01D1012D01D0012070BD5D
:1029300004F83E6F6670267166713E3C91B10429C1
:1029400016D001220021206801F01CFE0122042182
:10295000206801F017FE2068016841F00101016064
:10296000002070BD01220021206801F00BFEF2E77B
:1029700001220421206801F005FEECE7704770B5E4
:102980000446206801694FF00005C943890716D441
:10299000C168C943890712D4E91E0161012020776B
:1029A00020688069800703D02046FFF7E7FF05E035
:1029B000204600F0DBF8204600F068F92577206813
:1029C0000169C943490718D4C168C943490714D4E8
:1029D0006FF004010161022020772068806910F403
:1029E000407F03D02046FFF7C9FF05E0204600F0F6
:1029F000BDF8204600F04AF9257720680169C943EF
:102A0000090717D4C168C943090713D46FF0080137
:102A10000161042020772068C069800703D0204628
:102A2000FFF7ACFF05E0204600F0A0F8204600F0DC
:102A30002DF9257720680169C943C90618D4C168F2
:102A4000C943C90614D46FF0100101610820207732
:102A50002068C06910F4407F03D02046FFF78EFF46
:102A600005E0204600F082F8204600F00FF92577B7
:102A700020680169C943C90708D1C168C943C907AA
:102A800004D1891E0161204600F066F920680169C1
:102A9000C943090609D4C168C943090605D46FF0C2
:102AA000800101612046FFF7A9FC20680169C94344
:102AB000490609D4C168C943490605D46FF04001ED
:102AC0000161204600F088FA20680169C94389063F
:102AD0000BD4C168C943890607D46FF02001016196
:102AE0002046BDE87040FFF78ABC70BD00B585B0D8
:102AF000002101910291039104910068164B17493E
:102B00000222984212D1886940F0040088618869E5
:102B100000F0040000904FF4706001900292049263
:102B200001A90F48FEF7C4FF05B000BD0D4B984248
:102B3000FAD1886940F010008861886900F01000BF
:102B400000904FF4707001900292049201A906481F
:102B5000FEF7AEFFE8E70000002C01400010024045
:102B6000000801400034014000100140704770B57A
:102B700004460D4694F83C0001280AD0012084F850
:102B80003C0042B1042A1AD0082A2DD00C2A53D175
:102B90003EE0022070BD2946206801F013FD206848
:102BA000816941F0080181612068816921F0040197
:102BB0008161206881692A69114381613CE029466D
:102BC000206801F033FD2068816941F40061816172
:102BD0002068816921F480618161206881692A69A6
:102BE00041EA0221816127E02946206801F058FD71
:102BF0002068C16941F00801C1612068C16921F004
:102C00000401C1612068C1692A691143C16113E0EF
:102C10002946206801F07CFD2068C16941F400610B
:102C2000C1612068C16921F48061C1612068C16906
:102C30002A6941EA0221C161002084F83C0070BD8C
:102C400010B50446002C03D094F83D0010B107E005
:102C5000012010BD002084F83C00204600F015F84B
:102C6000022084F83D00211D206801F043FC012072
:102C70003D3460726070A070E07020716071A0716E
:102C8000E07120722070002010BD70477047000076
:102C900010B50446002909D004290AD008290BD010
:102CA00094F8410001280AD0012010BD94F83E009C
:102CB000F8E794F83F00F5E794F84000F2E70220C7
:102CC00079B3042931D0082932D084F84100012297
:102CD000206801F057FC1B4A20681B49904201D034
:102CE000884203D1436C43F400434364206890421C
:102CF0000DD088420BD0B0F1804F08D013498842E4
:102D000005D01349884202D01249884213D1816804
:102D100001F00701062912D0016841F001010160AC
:102D20000DE0FFE784F83E00D1E784F83F00CEE7EE
:102D300084F84000CBE7016841F001010160002008
:102D400010BD0000002C0140003401400004004090
:102D500000080040000C00402DE9F04F8BB08A497C
:102D600088427CD1894D6868401C6860A8686421ED
:102D70000068B0FBF1F201FB120008B900F00EFC94
:102D8000A8680078C0076BD1022003F0FFFB804FDA
:102D90003861032003F0FAFB7E4E3061042003F01B
:102DA000F5FB7D4C2061052003F0F0FBDFF8EC81A2
:102DB000C8F810003969326911442269784C10440E
:102DC0000844C11700EB9170A16901EBA000A0615C
:102DD000A069FDF780FC734A734BFDF776FB734ADD
:102DE000734BFDF772FB0022724BFDF7E0FBFDF722
:102DF00005FDE0612878DFF8C0B1DFF8C0A14FF031
:102E0000000901280CD002282ED0687802284CD066
:102E1000C4F808906878DFF8A8B103284FD061E0C3
:102E20001C2268496848FDF7B1F99AE80700ABE849
:102E300007001C2104A8FDF7C2F91C2204A961485F
:102E4000FDF7A4F9CDF80490CDF80890CDF80C90DA
:102E5000CAF80090CAF80490CAF8089001E090E01F
:102E60007EE085F8009042E01C2257495548FDF766
:102E70008DF99BE80700AAE807001C2104A8FDF7CC
:102E80009EF91C2204A95048FDF780F9CDF8049062
:102E9000CDF80890CDF80C90CBF80090CBF80490CA
:102EA000CBF8089085F8009021E0226AA16842489A
:102EB00002F0D8FCDBF80400FEF71AFBAAE7DBF807
:102EC000000001F073FC68B11C2104A8FDF777F93C
:102ED0001C223E4904A8FDF759F91C2204A93C48CC
:102EE000FDF754F9687804283FD0C4F80C902068A6
:102EF000FDF70FFC706178616068FDF70AFC264CF5
:102F0000C8F8140060613349214802F035FE3149A8
:102F1000204802F031FE2F49204602F02DFE2D49B7
:102F20001E4802F029FE3868FDF7F3FB0146012038
:102F300003F000F83068FDF7ECFB0146022002F0D8
:102F4000F9FF2068FDF7E5FB0146032002F0F2FFE0
:102F5000D8F80000FDF7DDFB0146042002F0EAFF8F
:102F60000BB0BDE8F04F00F02BBB626AE16813487C
:102F700002F078FCDAF80410DBF8040003F02AFC15
:102F8000B5E70BB0BDE8F08F840D0020040C0020E5
:102F9000F8100020101100202811002040110020FE
:102FA0002C000020CDCCCCCCCCCC1C4044174154C0
:102FB000FB210940008AA140A8100020B410002085
:102FC0005800002000120020C8110020246A0008C8
:102FD000E4110020581100207047704710B50446D6
:102FE00020684169C1F3C01194F83D20212A0BD11A
:102FF00051B1416921F080014161606B08B1FEF778
:10300000AFFA204601F0C6FD20684169C1F3801186
:1030100094F83E20222A0BD151B1416921F04001A0
:103020004161A06B08B1FEF79BFA204601F08DFDCF
:10303000002010BD70470000F8B5044622681068F3
:10304000D168536900F00F05002D08D1860606D51A
:103050008E0604D52046BDE8F84001F0A4BD002648
:10306000002D60D003F0010501F490772F435AD072
:10307000C20705D0CA0503D5226C42F001022264C2
:10308000420705D5DA0703D0226C42F0020222641F
:10309000820705D5DA0703D0226C42F004022264CD
:1030A000020707D501F020022A4303D0226C42F028
:1030B00008022264226C002A2BD0800604D58806E0
:1030C00002D5204601F06FFD20684069C0F38010F2
:1030D000216C090700D408B3204601F036FD2068B2
:1030E0004169490616D5416921F040014161A06B53
:1030F00060B143494163A06BFEF756FA002808D03F
:10310000A06B416B01B0BDE8F04008472046FFF7D7
:1031100091FFF8BD2046FFF78DFFF8BD2046FFF771
:1031200089FF2664F8BD236B012B57D1C30655D503
:10313000CB0653D510685068009050694FF02003BB
:1031400040062DD5A16B0868406880B20028E9D000
:10315000A58D8542E6D9E0858869202818D0D068F9
:1031600020F48070D0602068416921F00101416144
:103170002068416921F04001416184F83E302663B6
:103180002068C16821F01001C160A06BFEF7E8F96A
:10319000A08DE18D401A81B22046FFF71EFFF8BDD9
:1031A000A08DE18D401A81B2E08D0028F7D0002972
:1031B000F5D0D06820F49070D0602068426922F089
:1031C0000102426184F83E3026632068C26822F022
:1031D0001002C2602046FFF700FFF8BD020606D5C8
:1031E0000A0604D52046BDE8F84001F0D1BD4006EE
:1031F000F3D54806F1D52046BDE8F84001F0BDBC46
:103200007D4A000870B50446002C04D094F83D00B7
:10321000002510B106E0012070BD84F83C50204626
:1032200000F022F8242084F83D002068C16821F4D1
:103230000051C160204601F015FD2068016921F4AC
:10324000904101612068416921F02A0141612068B3
:10325000C16841F40051C1602564202084F83D001C
:1032600084F83E00002070BD2DE9F04F85B0044683
:10327000002501950295039504957C4F21687C48B3
:1032800002220323DFF8EC8101264FF4806C4FF417
:10329000006AB9422AD1C16941F40021C161C16902
:1032A00001F400210091816941F010018161806980
:1032B00000F010000090CDF804C00292049301A920
:1032C0004046FEF7F5FBCDF804A00295039601A950
:1032D0004046FEF7EDFB002211463420FEF77CFD50
:1032E0003420FEF76BFD05B0BDE8F08FDFF888B144
:1032F0004FF480574FF0040959452FD1C16941F46B
:103300008011C161C16901F480110091816941F0AE
:1033100010018161816901F010010091816941F022
:1033200020018161806900F02000009001970292E5
:10333000049301A94046FEF7BBFBCDF8049002952B
:10334000039601A94D48FEF7B3FB00220A21352060
:10335000FEF742FD3520FEF731FDC4E7DFF820B16E
:103360004FF0800859453DD1C16941F40031C16138
:10337000C16901F400310091816941F0040181616A
:10338000806900F004000090CDF80490029204934C
:10339000DFF8F09001A94846FEF78AFB082001906B
:1033A0000295039601A94846FEF782FB374E364840
:1033B00030607560B560C6F80C8035617561B561C7
:1033C000F7613046FEF7E8FA08B1FEF786F8A66323
:1033D0007462002205212620FEF7FEFC2620FEF75F
:1033E000EDFC80E7DFF8A8904945B6D1C16941F40A
:1033F0008021C161C16901F480210091816941F09E
:1034000008018161806900F008000090CDF804C0D7
:1034100002920493DFF87C9001A94846FEF748FB2E
:10342000CDF804A00295039601A94846FEF740FB9B
:103430001548164E3C38443630607560B560C6F8A5
:103440000C8035617561B561F7613046FEF7A4FA0D
:1034500008B1FEF742F8A663746200220421272017
:10346000FEF7BAFC2720FEF7A9FC3CE7004C004021
:1034700000100240001001400050004000140140C4
:1034800000440040000801406C000240240F00206E
:1034900000480040000C014090F83E30202B01D045
:1034A0000220704759B152B190F83C30012B08D03E
:1034B000012380F83C300023036301F02FBC01207E
:1034C000704702207047704770472DE9F843044663
:1034D0000E4615461F4694F83D00202802D00220D3
:1034E000BDE8F883C6B1BDB194F83C00012815D001
:1034F000012084F83C004FF00009C4F840902120DE
:1035000084F83D00FEF7F4FB8046A584E584A068BE
:10351000B0F5805F04D005E00120E1E70220DFE79D
:10352000206920B13546002684F83C9013E0002540
:10353000FAE74346002280212046009701F057FC1D
:1035400008B10320CCE79DB1216815F8010B486054
:10355000E08C401EE084E08C0028EAD14346002243
:1035600040212046009701F042FC40B10320B7E71C
:1035700036F8020B2168C0F308004860E8E7202015
:1035800084F83D000020ABE77047FEE701225103BD
:103590000148FEF7A6BB0000001001404FF40051A7
:1035A0000148FEF796BB0000001001400348006888
:1035B000C16841F02001C16070470000140E002076
:1035C00008B505A000680090FF2302226946034861
:1035D000FFF77BFF08BD0000AC2B0000140E00209D
:1035E00008B50D48416941F001014161406900F0B1
:1035F00001000090002205210D20FEF7EDFB0D20BB
:10360000FEF7DCFB002211461020FEF7E5FBBDE8CB
:1036100008401020FEF7D2BB001002402DE9F04315
:1036200085B0002401940294039404943C48816979
:1036300041F010018161816901F0100100918169FF
:1036400041F020018161816901F0200100918169CF
:1036500041F004018161816901F0040100918169F7
:1036600041F008018161806900F0080000902D4F51
:10367000002242F202013846FEF733FBDFF8A88051
:10368000012220214046FEF72CFB01221021384662
:10369000FEF727FBDFF89490012211464846FEF71B
:1036A00020FB002202214846FEF71BFB42F21200DB
:1036B00001900125029503940226049601A938463B
:1036C000FEF7F6F92020019002950394049601A9D3
:1036D0004046FEF7EDF901950295039503270497FF
:1036E00001A94846FEF7E4F9019602950394049770
:1036F00001A94846FEF7DCF90420019002940394E6
:1037000001A94846FEF7D4F92803019002940394D6
:1037100001A94046FEF7CCF905B0BDE8F0830000F2
:10372000001002400010014000080140000C014060
:1037300010B596B000241294139414941594109418
:1037400011941C2109A8FCF73AFD202101A8FCF7DF
:1037500036FD3448324901604460846041F61F41BF
:10376000C1600461446180218161FEF7B1FE08B14E
:10377000FDF7B3FE4FF48050129012A92948FEF7CE
:1037800041FF08B1FDF7A9FE2648FFF759FA08B135
:10379000FDF7A3FE1094119410A92248FEF75AFEDB
:1037A00008B1FDF79AFE602009900A940B940C94DE
:1037B0000D940E940F94002209A91A48FFF7D7F927
:1037C00008B1FDF78AFE042209A91648FFF7CFF9D0
:1037D00008B1FDF782FE082209A91248FFF7C7F9D0
:1037E00008B1FDF77AFE0C2209A90E48FFF7BFF9D0
:1037F00008B1FDF772FE01940294039404940594B9
:103800004FF400500690089401A90648FEF7F8FD11
:1038100008B1FDF762FE0348FFF768F916B010BD66
:10382000002C01401C0C002010B58CB0242103A8F2
:10383000FCF7C5FC00240194029415484FF0804128
:103840000160446084604FF6FF71C160046184616F
:103850000320039004940121059106940C20079005
:10386000089409910A940B9003A90948FEF73BFFBD
:1038700008B1FDF732FE0194029401A90448FEF755
:10388000E9FD002801D0FDF728FE0CB010BD0000B6
:10389000640C002010B58CB0242103A8FCF78FFC29
:1038A0000024019402941548134901604460846027
:1038B0004FF6FF71C160046184610320039004949A
:1038C0000121059106940C200790089409910A940F
:1038D0000B9003A90948FEF706FF08B1FDF7FDFDAF
:1038E0000194029401A90548FEF7B4FD002801D017
:1038F000FDF7F3FD0CB010BD00040040AC0C00203F
:1039000010B58CB0242103A8FCF759FC00240194C5
:103910000294154813490160446084604FF6FF71BA
:10392000C160046184610320039004940121059126
:1039300006940C200790089409910A940B9003A90F
:103940000948FEF7D0FE08B1FDF7C7FD01940294C7
:1039500001A90548FEF77EFD002801D0FDF7BDFD59
:103960000CB010BD00080040F40C002010B58CB065
:10397000242103A8FCF723FC002401940294154899
:1039800013490160446084604FF6FF71C1600461B7
:1039900084610320039004940121059106940C2076
:1039A0000790089409910A940B9003A90948FEF71F
:1039B0009AFE08B1FDF791FD0194029401A9054812
:1039C000FEF748FD002801D0FDF787FD0CB010BDC3
:1039D000000C00403C0D00201CB500240094019414
:1039E0000E480D49016047214160846041F28731F2
:1039F000C16080218161FEF76BFD08B1FDF76DFDAF
:103A00000094019469460548FEF724FD002801D082
:103A1000FDF763FD1CBD000000100040840D002078
:103A200010B596B000241294139414941594109425
:103A300011941C2109A8FCF7C2FB202101A8FCF766
:103A4000BEFB3448324901604460846041F61F4146
:103A5000C1600461446180218161FEF739FD08B1D4
:103A6000FDF73BFD4FF48050129012A92948FEF754
:103A7000C9FD08B1FDF731FD2648FFF7E1F808B1AF
:103A8000FDF72BFD1094119410A92248FEF7E2FCDB
:103A900008B1FDF722FD602009900A940B940C9464
:103AA0000D940E940F94002209A91A48FFF75FF8AD
:103AB00008B1FDF712FD042209A91648FFF757F8CF
:103AC00008B1FDF70AFD082209A91248FFF74FF8CF
:103AD00008B1FDF702FD0C2209A90E48FFF747F8CF
:103AE00008B1FDF7FAFC0194029403940494059440
:103AF0004FF400500690089401A90648FEF780FC98
:103B000008B1FDF7EAFC0348FEF7F0FF16B010BD60
:103B100000340140CC0D002010B50C480A4901606A
:103B20004FF4E131416000218160C16001610C22EC
:103B300042618161C161FFF765FB002803D0BDE8E8
:103B40001040FDF7CABC10BD004C0040140E002010
:103B500010B50C480A4901604FF4E1314160002181
:103B60008160C16001610C2242618161C161FFF726
:103B700049FB002803D0BDE81040FDF7AEBC10BDE6
:103B800000500040580E002010B50C480A49016052
:103B90004FF4E131416000218160C16001610C227C
:103BA00042618161C161FFF72DFB002803D0BDE8B0
:103BB0001040FDF792BC10BD004400409C0E002058
:103BC00010B50C480A4901604FF4E1314160002111
:103BD0008160C16001610C2242618161C161FFF7B6
:103BE00011FB002803D0BDE81040FDF776BC10BDE6
:103BF00000480040E00E0020FEE770472DE9F04F3E
:103C000087B01C2273496846FCF7C0FA724CD4F89E
:103C10001C9002F021F9022002F024FB6F48A06002
:103C20006F4841696F4801606A496F4808606F4D8D
:103C3000DFF8BC816F4F2879DFF8BCA16F4E1228E6
:103C400002D011286BD09FE0DFF8B49199F8010001
:103C50000028FBD0FDF77CF901F0E2FADFF8A4B10F
:103C6000C8F800B0032002F0FDFA01F0C1FDD8F859
:103C70000010FCF704FBFCF77EFD21F00041002260
:103C80003346FCF7A3FDF0D3C8F804B0042002F0DB
:103C9000E9FA5D48E060B8685045FCD34FF0814BCD
:103CA0000CE001F0B5FA99F80000012827D099F846
:103CB000010001282BD0A868C8F80400B868504556
:103CC000EFD25249B8688842FCD201F0A1FAFDF760
:103CD0003FF94F48C8F80000032002F0C3FA01F092
:103CE00087FDD8F80010FCF7CAFAFCF744FD21F074
:103CF000004100223346FCF769FDF0D344E0D8F8D8
:103D000004005946FCF7B8FAC8F80400D6E7D8F81A
:103D100004005946FCF75EFAC8F80400CEE7DFF865
:103D2000F4B0E0694946FCF7A7FAFCF724FD21F05E
:103D3000004100225B46FCF731FDF2D3DFF8D8905A
:103D4000C8F80090032002F08DFA01F051FDD8F878
:103D50000010FCF794FAFCF70EFD21F00041002260
:103D60003346FCF733FDF0D3C8F80490042002F08A
:103D700079FA2A49E160B8685045FCD3E160B86837
:103D80005045FCD2FDF7E4F8042002F06BFAE76935
:103D90002348E060E0693946FCF76EFAFCF7EBFC7B
:103DA00021F0004100223346FCF7F8FCF2D30D4825
:103DB000002404601C2269460648FCF7E7F902204B
:103DC00002F050FA2C75287840F00400287007B0F3
:103DD000BDE8F08F741100202C000020000070421C
:103DE000E4690008FC0B002000003442C0100020F1
:103DF0005800002074100020000070C10000144022
:103E00000F0000200000B2C20000A041000080C0EE
:103E100000008CC2000051400000B4420000F0419C
:103E20000000204103480068C16841F02001C160E2
:103E300070470000580E002008B507494FF4FA52A9
:103E40000968B1FBF2F14143009100BF0098411EA7
:103E50000091FAD208BD0000000000202DE9F04FCB
:103E600089B01C222D4901A8FCF790F92C4DE86976
:103E700008902C4C2069A860207EDFF8A0A0DFF815
:103E8000A8B02A4FDFF8A8902A4EDFF8AC801A2895
:103E900002D014281BD032E0AF60E8690899FCF723
:103EA000EBF920F00040B842F7DBC5F80890DBF8EA
:103EB0002C0030602148CAF8000001F099FCE1694B
:103EC000FCF7DAF920F000404045F6DC17E0AF607F
:103ED000E8690899FCF7D0F920F000404845F7DB85
:103EE000DBF8140030601648CAF8000001F080FCCE
:103EF000E169FCF7C1F920F000404045F6DC1C22E6
:103F000001A90648FCF742F90020306020752078AE
:103F100040F00400207009B0BDE8F08F741100205B
:103F20002C000020C0100020E46900080000DC42E2
:103F300000007042FC0B00200000204100002042E5
:103F400000008C4210B56420FDF7A0FD00F010F8D1
:103F5000C820FDF79BFDBDE8104000F001B800004F
:103F6000012220210148FDF7BCBE000000080140ED
:103F7000002220210148FDF7B4BE000000080140E6
:103F80002DE9F04788B082461C22504901A8FCF771
:103F9000FDF8504D4E48A860022002F063F94B48EE
:103FA0004D4901604D4981604D484E4EB168814296
:103FB000FCD34D48A860EF694C4CDFF8348103E036
:103FC00001F016FCC8F80400E8693946FCF754F91A
:103FD000A042F5DB042002F045F9EC60FA20FCF782
:103FE00043FDFCF7B5FF434F3068B96801F0F6FFB9
:103FF000D5F81C90002002F035F93F486860286031
:104000003E4CE9694846FCF737F9A042F9DBFCF77A
:104010009FFFFFF797FF052001F02EF8642001F0C5
:10402000F7F9032001F028F8354800F05BFCDFF8D1
:10403000D49001F0DDFBD8F80010FCF720F9FCF774
:104040009AFB21F0004100224B46FCF7BFFBF0D366
:10405000387901F0EDF868B1012001F00DF8322057
:1040600001F0D6F900F0FAFB022001F005F8322049
:1040700001F0CEF9062000F0FFFF642001F0C8F93E
:1040800001F0EAFE2048A860022002F0EBF8B068D8
:10409000A042FCDBB068A042FCDC1C48A860EC69D4
:1040A000E8692146FCF7E8F85146FCF7C3FBF7D373
:1040B0001C2201A90548FCF769F8002038753878FA
:1040C00040F00400387008B0BDE8F087741100209B
:1040D000000020422C0000200000A04100007041A0
:1040E0000000A0C1741000200000A0420000704237
:1040F00058000020C01000200000F0C10000204146
:1041000000003343000014400000824200001842C7
:104110002DE9F84F022002F0A5F86D4C2079072810
:1041200043D06C48DFF8B081D8F808108142FBD347
:1041300001F05EFB694F78606A4EDFF8A4A1C6F813
:104140000CA0042002F08EF8C820FCF78DFCD6F8F5
:104150001C90654DF0694946FCF78EF8A842F9DBE2
:10416000FCF7F6FE4FF47A70FDF790FCA168D8F8E2
:10417000000001F033FFD6F81CB0002002F072F806
:104180005A48706030604FF08249F1695846FCF738
:1041900073F84845F9DBFCF7DBFE01F05DFE54499E
:1041A0004FF08049086820B106E0BDE8F84F00F004
:1041B000A7B82079012811D0486810B92279092AB6
:1041C0000CD010B920790E2808D0886810B9217950
:1041D000102903D0A8BB20791B2832D1F0690090A8
:1041E0004448706030604FF0814BF1690098FCF7F3
:1041F00043F85845F9DBFCF7ABFE3C4800F072FB96
:1042000001F0F6FA3968FCF73AF8FCF7B4FA21F055
:10421000004100224B46FCF7D9FAF1D3364800F0B2
:1042200061FB01F0E5FA3968FCF729F8FCF7A3FA1D
:1042300021F0004100224B46FCF7C8FAF1D301F00F
:104240000BFEFFF77FFE052000F016FF642001F053
:10425000DFF8032000F010FF642001F0D9F82748B0
:1042600000F040FB01F0C4FA3968FCF708F8FCF7ED
:1042700082FA21F0004100224B46FCF7A7FAF1D365
:10428000207900F0D5FF50B1012000F0F5FE32207A
:1042900001F0BEF800F0E2FA022000F0EDFE062088
:1042A00000F0EAFE01F0D8FDC6F808A04FF07E50FD
:1042B0003062022001F0D6FFD8F80800A842FBDBEC
:1042C00000202075207840F004002070BDE8F88FB1
:1042D000C01000200000A0C0741000205800002072
:1042E000000048422C000020000020410000F0C1E6
:1042F0009C100020000020C10000F041000033436A
:1043000070B51948194982688A42FCD301F070FAE5
:10431000174C606018491748C860042001F0A2FFDC
:104320001648D0F808110029FBD1FCF711FE1448FB
:1043300000F0D8FA134D01F05BFA2168FBF79FFFFC
:10434000FCF719FA21F0004100222B46FCF73EFA57
:10435000F1D301F081FD0C4800210175017841F095
:104360000401017070BD000074100020000070C1D5
:1043700058000020000020422C0000200080214234
:104380000000364300001440C0100020F0B58FB08C
:104390001C22214908A8FBF7F9FE1C221F4901A88D
:1043A000FBF7F4FE1E4CE7691B481E4D05601E4ED0
:1043B000A660E0693946FBF75FFFA842F9DB01F030
:1043C00017FA1A494860154919480860E660042040
:1043D00001F048FF174C4FF04041A0688842FCD3E1
:1043E00000F01EFF4FF08041A0688842FCDB1C22D9
:1043F00001A90A48FBF7CAFE1C2208A90648FBF7D8
:10440000C5FE00F005FF0C4800210175017841F060
:10441000040101700FB0F0BD74110020AC11002038
:104420002C000020000048420000A041580000205D
:104430003333B33F74100020C0100020FDF75EBC82
:1044400030B58FB0282105A8FBF7B9FE14216846C6
:10445000FBF7B5FE0121059108040690002407949E
:10446000099102250C950D904FF4E0100E9005A8CF
:10447000FDF7EEFD08B1FDF730F80F200090019533
:1044800002944FF480600390049402216846FDF783
:10449000D5FC002801D0FDF720F80FB030BD00009A
:1044A0000D48016841F00101016041680B4A11406B
:1044B000416001680A4A11400160016821F48021CD
:1044C0000160416821F4FE0141604FF41F018160E9
:1044D0000449C00308607047001002400000FFF864
:1044E000FFFFF6FE08ED00E00148FEF748BA0000C5
:1044F000840D00202DE9F04102681D4D1D4E1E4F18
:10450000DFF878C01E4B4FF08048A84209D098428F
:1045100007D0404505D0B04203D0B84201D0604535
:1045200003D122F070044A682243A84209D098427D
:1045300007D0404505D0B04203D0B84201D0604515
:1045400003D122F44074CA6822434C6922F08002ED
:10455000224302608A68C2620A688262A84201D06D
:10456000984201D10969016301214161BDE8F081EF
:10457000002C01400004004000080040000C0040F6
:104580000034014010B501F01F0101238B40046A83
:104590009C430462036A8A401343036210BD10B552
:1045A000846824F47F4442EA03220A43224382605F
:1045B00010BD826822F070020A4342F00701816058
:1045C00070470000F0B5026A22F001020262026A3E
:1045D0004368846924F0700424F003050C682C43BC
:1045E00022F002058A682A430E4E0F4FB04201D0D6
:1045F000B84205D122F00805CA682A4322F0040215
:10460000B04201D0B84207D123F4807323F4007381
:104610004D691D438B692B43436084614968416345
:104620000262F0BD002C014000340140F0B5026A86
:1046300022F010020262036A4268846924F4E044B2
:1046400024F440740D6844EA052423F020038D68A7
:1046500043EA0513104D114EA84201D0B04206D1D5
:1046600023F08003CF6843EA071323F04003A842F6
:1046700001D0B04209D122F4806222F400624D6977
:1046800042EA85028D6942EA850242608461496896
:1046900081630362F0BD0000002C01400034014042
:1046A000F0B5026A22F480720262026A4368C46949
:1046B00024F0700424F003050C682C4322F40072EB
:1046C0008D6842EA0522104D104EA84201D0B0423A
:1046D00006D122F40062CF6842EA072222F4806207
:1046E000A84201D0B04209D123F4805323F40053EF
:1046F0004D6943EA05138D6943EA05134360C461BC
:104700004968C1630262F0BD002C014000340140E1
:1047100030B5026A22F480520262046A4268C369B8
:1047200023F4E04323F440730D6843EA052324F4A3
:1047300000548D6844EA0534084DA84202D0084D63
:10474000A84204D122F480424D6942EA85124260B7
:10475000C36149680164046230BD0000002C01405F
:104760000034014010B5036A046A24F001040462B5
:10477000846924F0F00444EA021423F00A020A4394
:104780008461026210BD10B5036A23F01003036256
:104790008469036A24F4704444EA023223F0A003DB
:1047A00043EA01118261016210BD00002DE9F04170
:1047B000044624482449844204DD2046FBF75CFD7E
:1047C000044606E02148844203D92046FBF702FD57
:1047D000044601F00DF8804641462046FBF74CFDAB
:1047E00020F0004000251A4F1A4EB0F17E5F06DA25
:1047F000756035603D613D600120BDE8F081214676
:10480000404601F0F3FBB860BD611349104801F068
:10481000BFFD044631692046FCF716F801D834691B
:1048200009E03069214680F00040FCF70DF802D81D
:10483000306980F00044346084F0004070600020F3
:10484000DBE70000000034430000B443000034C341
:10485000E41100202C0000209011002070B51C4EA7
:10486000304600F03FF81B4D1B4C00F0C1FF2168A3
:10487000FBF705FDFBF77FFF21F0004100222B46EF
:10488000FBF7A4FFF1D3304600F02CF800F0B0FFA6
:104890002168FBF7F4FCFBF76EFF21F000410022DA
:1048A0002B46FBF793FFF1D30C4800F01BF80C4D9F
:1048B00000F09EFF2168FBF7E2FCFBF75CFF21F0B4
:1048C000004100222B46FBF781FFF1D370BD0000B1
:1048D0000000024300002440580000200000F04285
:1048E0000000F03F10B5044600F082FF014620466C
:1048F000FBF770FC094A0A49904202DDFBF7BCFC59
:1049000004E0084A904201D9FBF764FC06490860BC
:10491000BDE81040032001F0A5BC000000003443B6
:104920000000B443000034C3580000202DE9F041DA
:10493000002100202D4E33681A68D24392064AD4D3
:104940005A68D2B22A4C00252A4F94F801C0BCF113
:10495000010F03D0BCF1000F3FD040E094F800C03D
:104960000CF1010808F0FF0884F8008007F80C201B
:10497000B8F1050F2FD33A5C1144C9B2401CC0B244
:104980000428F8D33879884224D1D86820F0200050
:10499000D860B878797840EA01201749086014494E
:1049A000F878891C00F001020A70C0F340024A70D6
:1049B000C0F380028A70C0F3C000C8700F48102195
:1049C00090F904200C4801F03DFD3068C16841F0C9
:1049D0002001C1606570BDE8F081AC2A01D065702E
:1049E000F9E70120607020703A70F4E7140E00209F
:1049F0000D00002088100020EC100020FC0B00208F
:104A000070B51B4800680168C943890615D4406821
:104A1000C5B21848012181600446333D228863886D
:104A20001549A488062D08D2DFE805F003080D1209
:104A3000171C42F0040202800A6070BD42F00802B6
:104A400002800A6070BD43F0100242804A6070BD6F
:104A500043F0200242804A6070BD44F040028280F0
:104A60008A6070BD44F0800282808A6070BD000060
:104A7000580E0020140000209C10002010B5406A41
:104A80000021C185C184FEF7D5FA10BD70B5446A16
:104A900020684069C0F3C01094F83D10002521291A
:104AA00004D118B1E584204600F074F8206840690C
:104AB000C0F3801094F83E10222904D118B1E58586
:104AC000204600F042F8206C40F0100020642046A0
:104AD000FEF7B0FA70BD10B50146486A096809686A
:104AE00089061BD40021C1850168CA6822F480723E
:104AF000CA6001684A6922F001024A6101684A6994
:104B000022F040024A61202180F83E10016B012909
:104B100004D10168CA6822F01002CA60016B012941
:104B200002D0FEF7D0FC10BD818DFEF756FA10BD05
:104B300010B5406A016B012902D0FEF7C5FC10BD1B
:104B4000818D4908FEF749FA10BD0168CA6822F450
:104B50009072CA6001684A6922F001024A61016BE1
:104B6000012904D10168CA6822F01002CA6020211C
:104B700080F83E1000210163704710B50168CA68D3
:104B800022F04002CA60202180F83D10FEF7FCFCB4
:104B9000002010BD0168CA6822F0C002CA6020214E
:104BA00080F83D10704708B590F83E10222901D0DA
:104BB000022008BD82684FF480539A4201D10169F6
:104BC00021B1816A9A421DD052B10BE0816A02681C
:104BD0005268C2F308020A80816A891C816209E076
:104BE00002697AB10268526802F07F020A70816A33
:104BF000491C8162C18D491E0904090CC18505D07B
:104C0000002008BD026852680A70F0E70168CA68AF
:104C100022F02002CA600168CA6822F48072CA6069
:104C200001684A6922F001024A61202180F83E10A1
:104C3000016B012903D0FEF746FC002008BD0021CE
:104C400001630168CA6822F01002CA6001680A683C
:104C5000D20602D50A6849680091818DFEF7BDF938
:104C6000EBE7000070B5044620680169E26821F4B2
:104C7000405111430161A16820690143606901430A
:104C80002068C26841F20C639A430A43C2602068FC
:104C90004169A26921F44071114341611E492068B4
:104CA000884202D1FDF78AF901E0FDF777F900EBC0
:104CB000C00101EB0010616864228900B0FBF1F3D0
:104CC000B3FBF2F36FF018067343B0FBF1F5B0FBE2
:104CD000F1F605EB8305322303EB0515B5FBF2F581
:104CE000B6FBF2F605F0F00505EB0615B0FBF1F6A4
:104CF000B0FBF1F0B0FBF2F06FF01801484306EBA7
:104D0000800003EB0010B0FBF2F0216800F00F0010
:104D10002844886070BD00000038014037B582B07B
:104D200004461346039AA262A38500252564222027
:104D300084F83E00A16B13488862A16B1248C862D8
:104D4000A16B12480863A06B45632168A06B091D25
:104D5000FCF762FE206801684168019184F83C50CC
:104D6000C16841F48071C1602068416941F001016E
:104D700041612068416941F04001416105B0002076
:104D800030BD0000D74A0008314B00088D4A0008AA
:104D900090F83D10212901D0022070478168B1F5BB
:104DA000805F01D1016961B1016A4A1C0262026837
:104DB00009785160C18C491E0904090CC1840AD0CC
:104DC00013E0016A02680988C1F308015160016AB1
:104DD000891C0162EEE70168CA6822F08002CA609D
:104DE0000068C16841F04001C160002070472DE9B2
:104DF000F04104460E4617469846069D1DE0681C85
:104E00001BD02DB1FCF774FFA0EB0800A84214D909
:104E10002068C16821F4D071C1602068416921F027
:104E200001014161202084F83D0084F83E0000200B
:104E300084F83C000320BDE8F0812068006836EA71
:104E4000000004D00020B842D9D00020F3E70120B0
:104E5000F9E70000F8B52D4800680168C1F30011BA
:104E6000002939D000240168406800902748FEF7E7
:104E7000B5F8274800684068264AC0F10400507021
:104E800010780125111D10B90B782C2B03D00223AB
:104E9000012802D004E015701EE04E78122E04D0D6
:104EA000022804D003280DD016E0137014E0907887
:104EB000042802D2C8785B280ED1032010708878AD
:104EC000D07009E0C8785B2811D01470947000206D
:104ED0000C54401C0428FBDB0E490422091D0B481E
:104EE000FEF7DAFABDE8F8400848FEF7A5B8D07832
:104EF000052808D093601470947000200C54401C56
:104F00000428FBDBE8E79560F5E700009C0E002035
:104F1000240F0020200000202DE9F84340480068BD
:104F20000168C1F3001100296FD04FF0000901683A
:104F3000406800903A48FEF751F83A4800684068E7
:104F4000394EC0F1C8003070384C207855285AD1FD
:104F500000210020225C1144C9B2401C0A28F9DB60
:104F6000A07A88424FD1A07801284CD1207961796C
:104F700040EA012000B2FBF7AEFB2D4F00223B467A
:104F8000FBF7A3FA6FF00E084246FBF77FFBFBF737
:104F900035FC264DC8356860A079E17940EA0120EA
:104FA00000B2FBF798FB00223B46FBF78EFA424625
:104FB000FBF76CFBFBF722FCA860207A617A40EAE1
:104FC000012000B2FBF787FB00223B46FBF77DFA8E
:104FD0004246FBF75BFBFBF711FC2860286815498C
:104FE000884204DD2868FBF747F9286007E0286855
:104FF00010F1FF4F03D32868FBF7ECF82860A8688E
:1050000080F00040A86086F80090C8220749044854
:10501000FEF742FABDE8F8430148FEF70DB800007C
:10502000E00E0020680F00200C000020AC0F0020D4
:10503000008066400000B443FEE70907090E00281F
:1050400004DB00F1E02080F80014704700F00F004E
:1050500000F1E02080F8141D704702E008C8121F1C
:1050600008C1002AFAD170477047002001E001C151
:10507000121F002AFBD1704770B5072862D2DFE803
:1050800000F00426303A61555B000021032000F057
:105090005BF84FF4C874204600F0BAF9A021032051
:1050A00000F052F84FF47A75284600F0B1F900216B
:1050B000032000F049F8204600F0AAF9A0210320BF
:1050C00000F042F82846BDE8704000F0A1B9002188
:1050D000012000F039F8BDE87040A021022000F066
:1050E00033B8A021012000F02FF8BDE87040002166
:1050F000022000F029B80021012000F025F8C82086
:1051000000F086F9A021022000F01EF8C82000F06F
:105110007FF9A021012000F017F8C82000F078F9ED
:10512000BDE870400021022000F00EB8BDE87040DC
:105130000A21002000F008B8BDE87040642100207A
:1051400000F002B870BD000010B504460846FBF739
:10515000D3FA084A084BFBF7B8F90022074BFBF7D4
:105160000DF9FBF7EFFA02462046BDE81040012199
:1051700000F0EABF9A9999999999014000C063405B
:1051800070B5002001F06EF819496FF01D004861FC
:105190001849486118494861184948611848017818
:1051A00011B941780029FAD0FBF7D2FE154C164D03
:1051B000E0692860032001F055F8144E00F018FB58
:1051C0002968FBF75CF8FBF7D6FA21F000410022D2
:1051D0003346FBF7FBFAF1D300F03EFE022001F06C
:1051E00041F800202075207840F00400207070BD48
:1051F00010110020F810002040110020281100207C
:105200000F000020C01000205800002000001440B3
:10521000012210210148FCF764BD0000001001408C
:10522000002210210148FCF75CBD00000010014085
:105230001C491B28496823D008DC1A4A092812682F
:105240000CD00E2810D0102806D113E015492A28BA
:1052500089681BD031281FD000207047500701D526
:105260000120704700207047100701D501207047CA
:1052700000207047880601D5012070470020704744
:10528000C80601D50120704700207047080601D5E7
:105290000120704700207047480601D50120704763
:1052A000002070479C100020F0B5002000244B49DE
:1052B0004B4BCA8819681B7A950713D5052B11D358
:1052C00001254FF6FF77294201D0401CC0B20528C6
:1052D00001D30120F0BD07EA4505641CE4B2062CA9
:1052E000F1D30020540711D5052B0FD34FF40045FF
:1052F0000024294201D0401CC0B2052801D301205E
:10530000F0BD6D08641CE4B2062CF2D334481407D7
:10531000007AA0F1040006D5032804D811F0060F86
:1053200001D00120F0BD940405D5032803D8CC0793
:1053300001D00120F0BD540405D5032803D80C0486
:1053400001D50120F0BDD40606D5032844D811F4B8
:10535000C04F41D00120F0BD100609D50A2B3BD328
:10536000C1F3C900A0F54071FF3935D10120F0BD6E
:105370001C4996064FF00005888800F1010084B2B0
:105380001748407A0ED5012801D8052B00D38C8010
:105390008A88032A20D301281ED1032B1CD8CD8054
:1053A0008D80F0BD520617D5012801D8052B00D3FA
:1053B0008C808A88032A04D3012802D1CA88521C0F
:1053C000CA80CA88032A07D3012801D8052B03D332
:1053D000CD808D800120F0BD0020F0BDC0100020E8
:1053E000EC10002060000020064807490068B0FB70
:1053F000F1F206490A704FF47A72B0FBF2F048609D
:10540000704700000000002080841E00040000207F
:1054100070B500214FF0E0256C690A4A526850438C
:10542000AB69AA699A42FCD003D2A3EB02031944E8
:1054300003E0A4EB02063344194413468142F0D33F
:1054400070BD00000400002070B500214FF0E02581
:105450006C690A4A12785043AB69AA699A42FCD037
:1054600003D2A3EB0203194403E0A4EB0206334486
:10547000194413468142F0D370BD0000040000209F
:105480002DE9F05F944FDFF84CB2C7F808B0022066
:1054900000F0E8FE914C207802280AD004280ED0B3
:1054A000DFF83C828F4DDFF840A2904EDFF840924B
:1054B0000AE101F091F803202070BDE8F09FBDE8FB
:1054C000F05F01F089B8FFF7ABFEFBF741FD4FF449
:1054D000C870FCF7DBFA87480068012811D0C7F8CC
:1054E00008B0022000F0BEFE012028754FF47A704B
:1054F000FCF7CCFA20780328DFD0BDE8F05F01F09C
:105500006BB8FFF785FE207820B1012849D0032829
:10551000CED18DE098F80000801EC0B288F800005F
:10552000754A13211154002000F09CFE73487860E6
:105530003860D7F81C80F9694046FAF79DFE50455F
:10554000F9DB6F48FFF7CEF900F052F93168FAF74E
:1055500096FEFBF710F921F0004100224B46FBF7C5
:1055600035F9F1D30A21182000F060F900EB800131
:105570006448142200EB8101281DFAF707FE37204A
:10558000A881E88840F48060E8805F4828610220B4
:1055900000F068FE287840F020002870012020707C
:1055A0008BE798F80000801EC0B288F800005249CE
:1055B0000B220A54002000F055FE504878603860F5
:1055C000D7F81C80F9694046FAF756FE5045F9DBDA
:1055D0004B48FFF787F900F00BF93168FAF74FFEF7
:1055E000FBF7C9F821F0004100224B46FBF7EEF82B
:1055F000F1D30A21132000F019F900EB8001414892
:10560000142200EB8101281DFAF7C0FD2320A88198
:105610003D482861E88840F48060E880022000F07E
:1056200021FE287840F0200028700220207044E7F6
:1056300098F80000801EC0B288F800002E4913229E
:105640000A54002000F00EFE2C4878603860D7F82D
:105650001C80F9694046FAF70FFE5045F9DB2848EF
:10566000FFF740F900F0C4F83168FAF708FEFBF7DD
:1056700082F821F0004100224B46FBF7A7F8F1D356
:105680000C21192000F0D2F800EB80011D481422F3
:1056900000EB8101281DFAF779FD3720A8811B480E
:1056A0002861E88840F48060E880022000F0DAFD9C
:1056B000287840F02000287004202070FDE6C7F80C
:1056C00008B0022000F0CEFD1148007A0828F6D379
:1056D000F9E60000000070422C0000205C0200206F
:1056E00061000020C01000200000A04158000020F0
:1056F0000000084028000020680000200000F0C1E1
:1057000000003543600200200000B4420000C8429F
:10571000EC1000202DE9F041C1F30A52A2F2FF364D
:105720002F4A304B0D460446142E2FDA002E12DA83
:10573000FAF724FE00221346FBF748F84CD2002D5E
:10574000A4BF0024254647DA25F00040204318BFB7
:10575000254D41D018E0DFF894C02CFA06F705EA91
:10576000070C5CEA040C08BFBDE8F081FAF706FEFE
:1057700000221346FBF72AF82ED2002D03DA4FF44D
:105780008010F0400544BD43002425E0332EC8BFFF
:10579000BDE8F081A6F1140C4FF0FF3727FA0CF7A3
:1057A0003C4208BFBDE8F081FAF78CFE00221346A8
:1057B000FBF70CF810D2002D0DDA142E08BF6D1C6B
:1057C00009D0C6F13400012101FA00F02044A042C2
:1057D00038BF6D1C0446BC4329462046BDE8F08115
:1057E0009C7500883CE4377E0000F0BFFFFF0F008F
:1057F00010B50A48C1680068FAF7ECFC084A094984
:10580000904203DDBDE81040FAF736BD064A9042EB
:1058100003D9BDE81040FAF7DDBC10BD74100020BC
:10582000000034430000B443000034C330B50A4ADA
:10583000135C0A4A105C0022094C08E000EB80056A
:1058400014F825508D4205D0401CC0B2521C9A421B
:10585000F4DB002030BD0000980B0020CA0B0020B4
:10586000600200202DE9F04104460E4690460025D6
:10587000676830463946FAF7FFFC10F1FF4F00D257
:10588000012531463846FAF7D5FF15D02DB14146EE
:105890006068FAF79FFC606004E041466068FAF7D0
:1058A000EBFC6060012D09D0002D05D13146606808
:1058B000FAF7C0FF00D26660BDE8F081314660684B
:1058C000FAF7C2FFF8D26660F6E70000034800214D
:1058D0000175017841F0040101707047C01000208B
:1058E00010B5124C002202212046FCF7FAF920687C
:1058F00020F00F002060206840F0030020600022AC
:1059000001212046FCF7EDF90220FFF79DFD012261
:1059100002212046FCF7E5F90220FFF795FD20461D
:105920000022BDE810400221FCF7DBB9000C014069
:1059300010B5124C002202212046FCF7D2F9206853
:1059400020F00F002060206840F00300206001225A
:1059500011462046FCF7C5F90220FFF775FD01222C
:1059600002212046FCF7BDF90220FFF76DFD20461D
:105970000022BDE810400221FCF7B3B9000C014041
:105980002DE9F04107460024174E306820F00F0043
:105990003060306840F008003060002500220221AD
:1059A0003046FCF79EF90220FFF74EFD012202214E
:1059B0003046FCF796F96006040E01213046FCF7EC
:1059C00081F908B1641CE4B20120FFF73DFD6D1CB4
:1059D000EDB2082DE2D327B1FFF782FF2046BDE8E4
:1059E000F081FFF7A5FFF9E7000C014070B505460F
:1059F000164E3046316821F00F013160016841F0E8
:105A00000301016000220221FCF76BF90024EA097E
:105A100001213046FCF765F96806050E0220FFF704
:105A200013FD012202213046FCF75BF90220FFF74B
:105A30000BFD002202213046FCF753F90220FFF74C
:105A400003FD641CE4B2082CE1D370BD000C0140DE
:105A500010B5124C206820F00F002060206840F044
:105A600003002060012211462046FCF73AF901228A
:105A700002212046FCF735F90420FFF7E5FC00225F
:105A800001212046FCF72DF90420FFF7DDFC20461C
:105A90000022BDE810400221FCF723B9000C0140B0
:105AA00010B5124C206820F00F002060206840F0F4
:105AB00003002060002202212046FCF712F9002298
:105AC00001212046FCF70DF90420FFF7BDFC01225F
:105AD00002212046FCF705F9012211462046FCF779
